:100000000C946A000C9492000C9492000C94920050
:100010000C9492000C9492000C9492000C94920018
:100020000C9492000C9492000C9492000C94920008
:100030000C9492000C9492000C9492000C949200F8
:100040000C94330D0C9492000C94A30D0C947D0D24
:100050000C9492000C9492000C9492000C949200D8
:100060000C9492000C9492007C3C3E5E2B3D3F2F02
:100070005B5D3B2C2A225C0000000000240027006E
:100080002A0000000000250028002B0000000000CE
:1000900023002600290004040404040404040202CA
:1000A00002020202030303030303010204081020F7
:1000B0004080010204081020010204081020000002
:1000C0000008000201000003040700000000000017
:1000D0000000C11011241FBECFEFD8E0DEBFCDBF9E
:1000E00011E0A0E0B1E0E0ECFCE202C005900D926E
:1000F000A639B107D9F724E0A6E9B1E001C01D9205
:10010000AB3EB207E1F710E0CAE6D0E004C02197A9
:10011000FE010E940815C936D107C9F70E940A12CC
:100120000C945E160C940000833081F028F481302A
:1001300099F08230A9F008958730A9F08830C9F08D
:100140008430B1F4809180008F7D03C08091800065
:100150008F7780938000089584B58F7784BD08954C
:1001600084B58F7DFBCF8091B0008F778093B000F6
:1001700008958091B0008F7DF9CFCF93DF93282F22
:1001800030E0F901E254FF4F8491F901E655FF4F49
:10019000D491F901EA56FF4FC491CC23A1F081110B
:1001A0000E949400EC2FF0E0EE0FFF1FE457FF4F8A
:1001B000A591B491EC91ED2381E090E009F480E009
:1001C000DF91CF91089580E090E0FACF1F93CF9315
:1001D000DF93282F30E0F901E254FF4F8491F901B9
:1001E000E655FF4FD491F901EA56FF4FC491CC2355
:1001F000A9F0162F81110E949400EC2FF0E0EE0F71
:10020000FF1FEE57FF4FA591B4918FB7F894EC9173
:10021000111108C0D095DE23DC938FBFDF91CF9101
:100220001F910895DE2BF8CFCF93DF9390E0FC0170
:10023000E655FF4F24918A569F4FFC0184918823F5
:10024000D1F090E0880F991FFC01E858FF4FA5916D
:10025000B491FC01EE57FF4FC591D49161110EC0CE
:100260009FB7F8948C91E22FE0958E238C93288190
:10027000E223E8839FBFDF91CF9108958FB7F89471
:10028000EC91E22BEC938FBFF6CF3FB7F8948091BF
:10029000A4019091A501A091A601B091A70126B556
:1002A000A89B05C02F3F19F00196A11DB11D3FBFAE
:1002B000BA2FA92F982F8827BC01CD01620F711D7D
:1002C000811D911D42E0660F771F881F991F4A9577
:1002D000D1F708958F929F92AF92BF92CF92DF9203
:1002E000EF92FF920E9445014B015C018AE0C82E0B
:1002F000D12CE12CF12C0E944501681979098A0959
:100300009B09683E734081059105A8F321E0C21A5C
:10031000D108E108F10888EE880E83E0981EA11C40
:10032000B11CC114D104E104F10429F7FF90EF904E
:10033000DF90CF90BF90AF909F908F9008952FB790
:10034000F8946091A0017091A1018091A201909117
:10035000A3012FBF0895AF92BF92CF92DF92EF9289
:10036000FF920F931F93CF93DF936C017B018B015F
:10037000040F151FEB015E01AE18BF08C017D107AF
:1003800059F06991D601ED91FC910190F081E02D39
:10039000C6010995892B79F7C501DF91CF911F918E
:1003A0000F91FF90EF90DF90CF90BF90AF900895A6
:1003B000FC01538D448D252F30E0842F90E0821B6B
:1003C000930B541710F0CF96089501970895FC01F0
:1003D000918D828D981761F0A28DAE0FBF2FB11D48
:1003E0005D968C91928D9F5F9F73928F90E00895A0
:1003F0008FEF9FEF0895FC01918D828D981731F05A
:10040000828DE80FF11D858D90E008958FEF9FEFAD
:100410000895FC01918D228D892F90E0805C9F4F83
:10042000821B91098F73992708958AEA93E00E94AD
:10043000090221E0892B09F420E0822F089580E051
:1004400090E0892B29F00E94150281110C94000084
:100450000895FC01A48DA80FB92FB11DA35ABF4F59
:100460002C91848D90E001968F739927848FA689B3
:10047000B7892C93A089B1898C91837080648C9307
:10048000938D848D981306C00288F389E02D8081B6
:100490008F7D80830895EF92FF920F931F93CF93E8
:1004A000DF93EC0181E0888F9B8D8C8D98131AC0AF
:1004B000E889F989808185FF15C09FB7F894EE8996
:1004C000FF896083E889F9898081837080648083F3
:1004D0009FBF81E090E0DF91CF911F910F91FF903E
:1004E000EF900895F62E0B8D10E00F5F1F4F0F73E6
:1004F0001127E02E8C8D8E110CC00FB607FCFACFA1
:10050000E889F989808185FFF5CFCE010E94290213
:10051000F1CFEB8DEC0FFD2FF11DE35AFF4FF08271
:100520009FB7F8940B8FEA89FB8980818062CFCFD7
:10053000CF93DF93EC01888D8823B9F0AA89BB891A
:10054000E889F9898C9185FD03C0808186FD0DC005
:100550000FB607FCF7CF8C9185FFF2CF808185FF26
:10056000EDCFCE010E942902E9CFDF91CF9108950E
:1005700061E0FC0184810C94E600CF93DF93EC01F1
:100580008FEF8EBD2FEF8F819885AC014F5F5F4F4E
:1005900058874F838130924028F40DB407FEFDCF79
:1005A0002EBDF1CF0DB407FEFDCFCE010E94B802E3
:1005B0001E82DF91CF9108958EBD0DB407FEFDCF51
:1005C00008958FEF0E94DC028EB508950F931F935C
:1005D000CF93DF93EC010E949F018B010E94E10207
:1005E0008F3F69F00E949F01601B710B6C177D07A4
:1005F000A8F380E0DF91CF911F910F91089581E0E2
:10060000F9CF8F929F92AF92BF92FF920F931F9359
:10061000CF93DF93EC01F62E49015A018E81882396
:1006200019F0CE010E94BD0260E08C810E94E600BC
:100630008CE291E00E94E6028F2D80640E94DC0231
:1006400008E110E0D501C401002E04C0B695A795BD
:10065000979587950A94D2F70E94DC0208501109F9
:10066000083F8FEF180771F785E9FF2021F088E038
:10067000F8120DC087E80E94DC0210E00E94E1023F
:100680008A8787FF06C01F3F21F01F5FF7CF8FEFDC
:10069000F2CFDF91CF911F910F91FF90BF90AF905C
:1006A0009F908F900895AF92BF92CF92DF92EF927A
:1006B000FF920F931F93CF93DF93EC016901C80161
:1006C000820F931F8130924050F58E81882379F0FC
:1006D00088819981AA81BB8184179507A607B707EE
:1006E00031F48F819885C816D90608F042C0488336
:1006F00059836A837B838B85833039F089E0440F8B
:10070000551F661F771F8A95D1F79A01AB0161E1EA
:10071000CE010E940103882389F083E08D83CE01FE
:100720000E94B80280E0DF91CF911F910F91FF905E
:10073000EF90DF90CF90BF90AF9008950E949F01FF
:100740005B010E94E1028A878F3F69F40E949F014A
:100750006A197B096D327140A0F38FE08D83CE0161
:100760000E94B802DCCF8E3FB1F418861F8281E070
:100770008E838FEF8EBD2FEF8F8198858C159D0511
:1007800060F40DB407FEFDCF2EBD8F8198850196D4
:1007900098878F83F1CF8DE0E1CFC8010197F701F2
:1007A0002FEFAF014E195F094817590738F40DB400
:1007B00007FEFDCF3EB531932EBDF3CF0DB407FE3E
:1007C000FDCF2EB5E80EF91EF70120838F819885A5
:1007D000080F191F18870F838985882319F00115C1
:1007E000124030F08E81882319F0CE010E94BD02A4
:1007F00081E099CF0F931F93CF93DF93EC01890191
:1008000082E1411551056105710599F08B858330B1
:1008100039F089E0440F551F661F771F8A95D1F77D
:100820009A01AB0168E1CE010E940103882319F00F
:1008300084E08D8338C08EEF8EBDF801C8019E5FC5
:100840000DB407FEFDCF20812EBD0DB407FEFDCFF8
:1008500021812EBD3296E817F90791F70DB407FEF6
:10086000FDCF8FEF0E94DC028FEF0E94DC020E941E
:10087000E1028A878F71853089F488E592E00E94D1
:10088000E6028823A9F020E030E0A9016DE0CE0166
:100890000E940103882371F084E1CBCF81E18D8335
:1008A000CE010E94B802CE010E94B80280E00AC0C8
:1008B00085E1BFCF0E94E1028111EECFCE010E94FF
:1008C000B80281E0DF91CF911F910F910895CF93EE
:1008D000DF93809196018823A9F1C091A803D0915C
:1008E000A9034091000150910101609102017091B2
:1008F000030128EA31E0CE010E94FA03811104C00D
:1009000080E0DF91CF910895409197015091980137
:100910006091990170919A01411551056105710528
:1009200079F028EA31E0CE010E94FA03882341F3EE
:1009300010929701109298011092990110929A01C9
:100940001092960181E0DDCF8F929F92AF92BF927D
:10095000EF92FF920F931F93CF934B015C01C42F33
:100960008091000190910101A0910201B0910301D9
:1009700088159905AA05BB0549F10E9467048111F4
:100980000BC080E0CF911F910F91FF90EF90BF902F
:10099000AF909F908F90089588EAE82E81E0F82E1E
:1009A00000E012E030E020E0B501A4018091A8034E
:1009B0009091A9030E945303882319F380920001A8
:1009C00090920101A0920201B09203014091960120
:1009D0004C2B4093960181E0D5CF8F929F92AF929E
:1009E000BF92CF92DF92EF92FF92CF9323E834E051
:1009F0003093A9032093A803882309F46DC040E035
:100A000060E070E0CB010E94A40481110BC080E083
:100A1000CF91FF90EF90DF90CF90BF90AF909F90DD
:100A20008F900895809166038F7789F78091720384
:100A300090917303A0917403B0917503843691056E
:100A4000A105B10520F3C0906E03D0906F03E09034
:100A50007003F0907103C114D104E104F104B9F200
:100A600040E0C701B6010E94A404882381F280916E
:100A7000B3019091B4018115924049F6A091B8015B
:100A8000AA2329F26091B6017091B7016115710531
:100A900009F4BDCF2091B501222309F4B8CFA0936A
:100AA000A1042093930490E080E030E0E1E0F0E0E6
:100AB000C82FAF01082E02C0440F551F0A94E2F759
:100AC0002417350769F041E0480F019689309105F8
:100AD00079F740939C049BCFC12CD12C7601C0CFD9
:100AE00080939C042091BE013091BF0150E040E012
:100AF0002115310541F42091CC013091CD01409177
:100B0000CE015091CF0120939404309395044093EB
:100B100096045093970446015701860E971EA11C18
:100B2000B11C8092A2049092A304A092A404B0925B
:100B3000A504E091B901F091BA01F093A804E09303
:100B4000A704B0E00E94DB14DC01CB01880D991DE5
:100B5000AA1DBB1D8093A9049093AA04A093AB0483
:100B6000B093AC0425E0EE0FFF1F2A95E1F7E150AA
:100B7000FE4FEF2FFF27E6958E0F9F1FA11DB11D82
:100B800080939D0490939E04A0939F04B093A0042F
:100B90008090BB019090BC01B12CA12C81149104D8
:100BA00041F48090C8019090C901A090CA01B09012
:100BB000CB01C81AD90AEA0AFB0AC80CD91CEA1CDC
:100BC000FB1C04C0F694E794D794C794CA95D2F757
:100BD000C0929804D0929904E0929A04F0929B04F7
:100BE00085EFC8168FE0D806E104F10428F48CE004
:100BF0008093A60481E00CCF80E125EFC2162FEF91
:100C0000D206E104F104A0F38091D4019091D501C2
:100C1000A091D601B091D7018093A9049093AA0422
:100C2000A093AB04B093AC0480E2E2CF4F925F920A
:100C30006F927F928F929F92AF92BF92CF92DF92EC
:100C4000EF92FF920F931F93CF93DF93EC0142300B
:100C500051056105710590F480E0DF91CF911F91FE
:100C60000F91FF90EF90DF90CF90BF90AF909F904B
:100C70008F907F906F905F904F90089589859A85AF
:100C8000AB85BC850196A11DB11D84179507A607EC
:100C9000B70710F3CB88DC88ED88FE888F89803118
:100CA00009F042C0BB27A72F962F852F4801590175
:100CB0002A013B01C80ED91EEA1EFB1E80910001CD
:100CC00090910101A0910201B0910301C816D906CB
:100CD000EA06FB0699F58F898031C1F5B301A201BF
:100CE000552766277727440F551F48555E4FFA0151
:100CF00091828082809196018160809396018A8999
:100D0000823080F08D819E81AF81B8858C0D9D1DD4
:100D1000AE1DBF1D8093970190939801A0939901F8
:100D2000B0939A0181E099CFDB01CA01E7E0B69563
:100D3000A79597958795EA95D1F7B8CF40E0C70179
:100D4000B6010E94A4048111C6CF86CFB301A201CF
:100D50004F77552766277727440F551F440F551F98
:100D600048555E4FFA0180829182A282B382C2CF3F
:100D70008F929F92AF92BF92CF92DF92EF92FF92AB
:100D80000F931F93CF93DF93FC0181859285A385F9
:100D9000B4850196A11DB11D84179507A607B70755
:100DA00070F480E0DF91CF911F910F91FF90EF9051
:100DB000DF90CF90BF90AF909F908F9008958388E1
:100DC0009488A588B6888789803189F5BB27A72FA5
:100DD000962F852FE9016A017B018F01BC01CD01AE
:100DE000680D791D8A1D9B1D809000019090010166
:100DF000A0900201B090030186169706A806B906D6
:100E000001F5F8018789803111F5DD24EE24FF24F6
:100E1000F601EE0FFF1FE855FE4F80819181B0E093
:100E2000A0E088839983AA83BB8381E0BBCFDB01E9
:100E3000CA01C7E0B695A79597958795CA95D1F74A
:100E4000C9CF40E00E94A4048111DBCFAACFE8946F
:100E5000C7F8DD24EE24FF24F601EE0FFF1FEE0F8E
:100E6000FF1FE855FE4F80819181A281B381BF7041
:100E7000D8CF4F925F926F927F92AF92BF92CF92F4
:100E8000DF92EF92FF920F931F93CF93DF9300D0E7
:100E900000D0CDB7DEB78C0149835A836B837C8346
:100EA0005901C12CD12C7601412C82E0582E612CA5
:100EB000712C49815A816B817C819E012F5F3F4F4C
:100EC000C8010E94B806882339F1F8018585A3017D
:100ED000920104C0220F331F441F551F8A95D2F779
:100EE000DA01C901C80ED91EEA1EFB1E49815A81CA
:100EF0006B817C818789803111F188EF9FEFAFEFA3
:100F0000BFE0481759076A077B0798F2F501C082CE
:100F1000D182E282F38281E00F900F900F900F90C8
:100F2000DF91CF911F910F91FF90EF90DF90CF90C5
:100F3000BF90AF907F906F905F904F90089588EF33
:100F40009FEFA0E0B0E0DDCF8F929F92AF92BF9273
:100F5000CF92DF92EF92FF920F931F93CF93DF9385
:100F6000EC018D8181110EC080E0DF91CF911F9146
:100F70000F91FF90EF90DF90CF90BF90AF909F9038
:100F80008F9008950B891C892D893E8904171507B8
:100F90002607370748F34A015B01823031F48A861D
:100FA0009B86AC86BD8681E0E0CF81149104A104CC
:100FB000B10449F41E821F82188619861A861B8680
:100FC0001C861D86F0CF0A851B852C853D85EB8D03
:100FD000FC8D858590E00996B901A8014150510921
:100FE00061097109082E04C0769567955795479554
:100FF0000A94D2F775016401E1E0CE1AD108E10844
:10100000F10804C0F694E794D794C7948A95D2F770
:10101000C416D506E606F70620F0012B022B032B9B
:1010200011F58F89988DA98DBA8D8E839F83A8879E
:10103000B9878E010A5F1F4FC114D104E104F10486
:1010400009F4ADCF4E815F816885798598018B8DDC
:101050009C8D0E94B80691E0C91AD108E108F108F8
:101060008111EACF81CFC41AD50AE60AF70AE1CF87
:101070003F924F925F926F927F928F929F92AF9228
:10108000BF92CF92DF92EF92FF920F931F93CF9375
:10109000DF93CDB7DEB72C970FB6F894DEBF0FBE47
:1010A000CDBF5C01DC015B968D909C905C971696A1
:1010B0004D905D906D907C9019974114510461049E
:1010C000710409F468C0BFEF4B1A5B0A6B0A7B0A14
:1010D000312CF40181859285A385B4859C01AD01F5
:1010E0002F5F3F4F4F4F5F4F29873A874B875C8772
:1010F000730162011D821E821F821886F4018185A0
:101100009285A385B4852D813E814F81588528170E
:1011100039074A075B0708F056C089859A85AB8571
:10112000BC858C159D05AE05BF0550F482E0C82E28
:10113000D12CE12CF12C92E0492E512C612C712CF8
:101140009E012F5F3F4FB701A601C4010E94B80660
:101150008823C9F189819A81AB81BC81892B8A2B33
:101160008B2B09F1260137019FEF491A590A690AA9
:10117000790A2D813E814F8158852F5F3F4F4F4F18
:101180005F4F2D833E834F8358873FEFC31AD30AA7
:10119000E30AF30AB3CFF401408051806280738088
:1011A0003324339496CFC414D504E604F70409F726
:1011B0000FEF1FEF2FEF3FE0B701A601C4010E9420
:1011C0001606811119C080E02C960FB6F894DEBF88
:1011D0000FBECDBFDF91CF911F910F91FF90EF9088
:1011E000DF90CF90BF90AF909F908F907F906F9047
:1011F0005F904F903F900895F5014681578160853B
:101200007185411551056105710539F09701860118
:10121000C4010E9416068823B1F2D5011696CD921C
:10122000DD92ED92FC921997332051F0D701C6015F
:101230000196A11DB11DF40180839183A283B38324
:10124000F5018789908DA18DB28D892B8A2B8B2BEF
:1012500039F4C78AD08EE18EF28E848180688483CF
:1012600081E0B2CFCF93DF93EC018D81882389F1A8
:101270008C8187FF2AC06E857F858889998941E0A6
:101280000E94A404882329F1EA8980E2E89FF00102
:101290001124E855FE4F3097E1F08D81823040F403
:1012A0008B899C89AD89BE89848F958FA68FB78FD6
:1012B0008F89988D938F828F8F89988DA98DBA8D04
:1012C000B58BA48B8C818F778C83DF91CF910C941D
:1012D000670480E0DF91CF9108952F923F924F9263
:1012E0005F926F927F928F929F92AF92BF92CF92B6
:1012F000DF92EF92FF920F931F93CF93DF9300D073
:1013000000D0CDB7DEB78C015B011A01DC01159668
:101310008C911597813009F0C8C014968C9181FF8B
:10132000C4C082FDAEC06101D8011A964D915D9195
:101330006D917C911D97C114D10409F429C15B966C
:101340008D919C915C97FC0174802FEF270D2A01F1
:101350003B0139E076946794579447943A95D1F7D6
:10136000722E74207A01F1E0FF22711020C0E11486
:10137000F104E9F416964D915D916D917C91199768
:10138000411551056105710509F098C057968D9179
:101390009D910D90BC91A02D0097A105B10509F07C
:1013A000AFC0C8010E943808882309F47EC080E0DD
:1013B00092E08E199F0946018C159D0508F44C0199
:1013C000D8015B964D915C915C9716968D919D919D
:1013D0000D90BC91A02D0297A109B109FA012585B4
:1013E00004C0880F991FAA1FBB1F2A95D2F74685F4
:1013F000578560897189840F951FA61FB71F9C01AF
:10140000AD01270D311D411D511D29013A018114E6
:1014100032E0930609F07AC08091000190910101B9
:10142000A0910201B091030184159505A605B705A9
:1014300059F48FEF9FEFDC0180930001909301013D
:10144000A0930201B09303019501B301A201809121
:10145000A8039091A9030E94FA03882331F19EEF1B
:10146000B91AC818D908F80182859385A485B5856D
:10147000880D991DA11DB11D82879387A487B5870B
:1014800053CFF8014389548965897689828593858C
:10149000A485B585481759076A077B0709F443CF28
:1014A000C8010E94A40781113ECF81E090E0D801DD
:1014B00013969C938E93129780E007C09E012F5F36
:1014C0003F4F0E94B806811102C090E077C0898129
:1014D0009A81AB81BC81F801238D348DF901278974
:1014E00048EF5FEF60E070E0203121F048EF5FEF00
:1014F0006FEF7FE084179507A607B70708F051CF75
:10150000F80186839783A087B18751CFE114F10456
:1015100091F5D8011A964D915D916D917C911D9731
:1015200053968D919D910D90BC91A02D4817590710
:101530006A077B0700F10E946704882309F4B5CF8E
:1015400040920001509201016092020170920301E9
:1015500080919601816080939601970128553E4FB6
:10156000D501C901880D991DF9018E179F0759F002
:101570004D914193FACF41E0C301B2010E94A4040E
:101580008111EBCF92CF821B930BA80EB91E69CFAE
:10159000F80183899489A589B68984179507A607D8
:1015A000B70738F48481438B548B658B768B8068C6
:1015B0008483F801848183FD18C0C1010F900F90CE
:1015C0000F900F90DF91CF911F910F91FF90EF90AF
:1015D000DF90CF90BF90AF909F908F907F906F9053
:1015E0005F904F903F902F900895C8010E9432095C
:1015F000882309F45ACFE1CFCF93DF931F92CDB761
:10160000DEB7698341E050E0BE016F5F7F4F0E940B
:101610006D090F90DF91CF9108950895FC01818DA0
:10162000928D009711F00C9432090895DC015996BF
:10163000ED91FC913097B9F083899489A589B68999
:101640004285538564857585841B950BA60BB70B66
:10165000811520E89207A105B10538F08FEF9FE7CB
:10166000A0E0B0E0089590E080E00895CF93DF938C
:10167000EC01E98DFA8D309749F481E090E09B838D
:101680008A8390E080E0DF91CF91089513821282E7
:10169000898D9A8D0E946D09E98DFA8D22813381A1
:1016A000232B59F7F0CFCF93DF931F92CDB7DEB73F
:1016B0006983DC01ED91FC910280F381E02D41E032
:1016C00050E0BE016F5F7F4F09950F90DF91CF9182
:1016D00008952F923F924F925F926F927F928F92D6
:1016E0009F92AF92BF92CF92DF92EF92FF920F93B1
:1016F0001F93CF93DF9300D01F92CDB7DEB7FC01CD
:101700008581811118C08FEF9FEF0F900F900F9080
:10171000DF91CF911F910F91FF90EF90DF90CF90CD
:10172000BF90AF909F908F907F906F905F904F9001
:101730003F902F900895848180FFE5CF438954899D
:101740006589768982859385A485B585312C212C80
:10175000481759076A077B0719F022242394312C74
:101760006F012101CE0101963C01DF011696BB837A
:10177000AA834114510409F4C5C0F601428553857A
:10178000648575854A01F1E09F22D6015B968D91B3
:101790009C915C978A019B01E9E036952795179506
:1017A0000795EA95D1F71596EC91E230E9F5FC0141
:1017B000628D738D848D958D600F711F821F931FB5
:1017C000A12C22E0B22EA818B9084A145B0408F430
:1017D0005201F601248126FD04C0A114F2E0BF06E7
:1017E00071F40091000110910101209102013091EA
:1017F0000301061717072807390709F05EC040E004
:101800000E94A404882309F47ECFC40188559E4F0A
:10181000D3019C012A0D3B1DFC012E173F0709F443
:101820006CC041914D93F9CFDC011496BC90BA94F1
:10183000B0228114910479F4B1100DC0452B462BD0
:10184000472B69F5F6018789908DA18DB28D86832E
:101850009783A087B187D6015B96ED91FC915C9749
:1018600016966D917D918D919C9119976250710999
:1018700081099109258504C0660F771F881F991F6C
:101880002A95D2F70685178520893189600F711F47
:10189000821F931F6B0D711D811D911D91CFD6016C
:1018A00016964D915D916D917C9119972A813B819E
:1018B0000E94B8068111CFCF26CF73018501940114
:1018C000AB01BC018091A8039091A9030E9453032E
:1018D000882309F418CF6A0C7B1CF6018285938556
:1018E000A485B5858A0D9B1DA11DB11D8287938797
:1018F000A487B5874A185B083CCF281B390B620EBA
:10190000731EEBCF2A94232809F0FDCE898190E045
:10191000FCCEFC01818D928D009711F00C94690B27
:101920008FEF9FEF08950F931F93CF93DF93EC01F9
:10193000898D9A8D10E000E0009799F00E94690B64
:101940008C010F3F100769F0898D9A8DFC0142854B
:1019500053856485758541505109610971090E945B
:10196000A407C801DF91CF911F910F91089590E0D6
:1019700080E00895FB0101900020E9F73197AF0165
:10198000461B570BDC01ED91FC910280F381E02DA9
:1019900009940F931F93CF93DF93EC010E94BA0C2D
:1019A0008C016AE371E0CE010E94BA0C800F911F96
:1019B000DF91CF911F910F9108950F931F93CF93B4
:1019C000DF93EC0160E088810E94E60083E090E014
:1019D0000197F1F761E088810E94E60083E290E0E0
:1019E0000197F1F760E088810E94E6008A819B817F
:1019F0009927FC01E655FF4F6491FC01EA56FF4F21
:101A0000E491F0E0EE0FFF1FE457FF4F85919491B2
:101A10000C811D812E813F813F70462F0E94D50D84
:101A2000611571058105910529F06F5F7F4F8F4F1B
:101A30009F4F9F70688779878A879B87672B682B62
:101A4000692B41F48C819D81AE81BF818887998704
:101A5000AA87BB87688579858A859B85DF91CF9129
:101A60001F910F9108951F920F920FB60F9211249C
:101A70002F933F938F939F93AF93BF938091A00138
:101A80009091A101A091A201B091A30130919F0179
:101A900023E0230F2D3758F50196A11DB11D20938A
:101AA0009F018093A0019093A101A093A201B09304
:101AB000A3018091A4019091A501A091A601B091EC
:101AC000A7010196A11DB11D8093A4019093A501CA
:101AD000A093A601B093A701BF91AF919F918F9161
:101AE0003F912F910F900FBE0F901F90189526E8F1
:101AF000230F0296A11DB11DD2CF1F920F920FB6D8
:101B00000F9211242F933F934F935F936F937F9383
:101B10008F939F93AF93BF93EF93FF938AEA93E0E2
:101B20000E942902FF91EF91BF91AF919F918F91F8
:101B30007F916F915F914F913F912F910F900FBEC9
:101B40000F901F9018951F920F920FB60F921124AD
:101B50002F938F939F93EF93FF93E091BA03F091AC
:101B6000BB038081E091C003F091C10382FD1BC0E3
:101B700090818091C3038F5F8F732091C40382177C
:101B800041F0E091C303F0E0E655FC4F958F809360
:101B9000C303FF91EF919F918F912F910F900FBEF3
:101BA0000F901F9018958081F4CFCF92DF92EF9223
:101BB000FF920F931F93E82FF92F05C001501109D1
:101BC0002109310961F1908196239417B9F305C079
:101BD000015011092109310911F1908196239413C3
:101BE000F7CFC12CD12CE12CF12C0AC08FEFC81AF1
:101BF000D80AE80AF80A0C151D052E053F0579F0EC
:101C000080818623841791F36C2D7D2D8E2D9F2D41
:101C10001F910F91FF90EF90DF90CF90089560E0BB
:101C200070E080E090E01F910F91FF90EF90DF90C7
:101C3000CF900895CF93DF93EC010E94320988235F
:101C400011F01D8281E0DF91CF910895FC01DB014D
:101C500012968D919C9113979383828382E391E0F6
:101C60009183808314968C911497848315968C911C
:101C70001597858316964D915D916D917C9119977D
:101C800046835783608771871A964D915D916D9158
:101C90007C911D9742875387648775871E964D9167
:101CA0005D916D917C91519746875787608B718BC1
:101CB00052968C915297828B53964D915D916D9176
:101CC0007C915697438B548B658B768B57964D91B1
:101CD0005D916D917C915A97478B508F618F728F78
:101CE0005B968D919C91948F838F0895CF92DF9214
:101CF000EF92FF921F93CF93DF93EC0180E2689FF6
:101D0000F0011124E855FE4F9385917161F0842F05
:101D1000827449F080E0DF91CF911F91FF90EF90A6
:101D2000DF90CF900895142F6A8B809100019091DD
:101D30000101A0910201B09103018E879F87A88BBA
:101D4000B98BC488D588F12CE12C7601DD24CC2414
:101D5000CF8AD88EE98EFA8E828D938DB0E0A0E086
:101D6000AC01BD014C295D296E297F294F8B588F0D
:101D7000698F7A8F83858871B1F4848D958DA68D56
:101D8000B78D8B8B9C8BAD8BBE8B81E08D831F7051
:101D90001C831E821F82188619861A861B861C8643
:101DA0001D8681E0B8CF803109F0B4CF9E012D5E51
:101DB0003F4F8B8D9C8D0E943907882309F4AACF51
:101DC00084E0E4CF3F924F925F926F927F928F9226
:101DD0009F92AF92BF92CF92DF92EF92FF920F93BA
:101DE0001F93CF93DF93CDB7DEB72B970FB6F89441
:101DF000DEBF0FBECDBF7C01FE013196CE010C9639
:101E00006F0130E23193E817F907E1F7DA0130E0CA
:101E100087E09D91B92E992309F43CC09E32F1F4DC
:101E20008A30C9F480E02B960FB6F894DEBF0FBE5F
:101E3000CDBFDF91CF911F910F91FF90EF90DF9079
:101E4000CF90BF90AF909F908F907F906F905F905A
:101E50004F903F90089538E08AE0DBCFE8E6F0E06D
:101E60004491442321F031969413FACFDBCF8317AA
:101E7000C8F24FED490F4E35A8F64FE9490F4A31E8
:101E800018F440EEB42EB90EF601E30FF11DB08246
:101E90003F5FBFCF8981803229F2322E8B01DB0177
:101EA0005B968D919C915C97F701948F838F16962A
:101EB0001D921D921D921C921997FB01128613868A
:101EC00014861586F80182859385A485B585438996
:101ED00054896589768984179507A607B70708F09E
:101EE0004DC025E0B695A795979587952A95D1F78A
:101EF000F82FFF70AF2ED80115968C91823008F420
:101F000091CFC8010E94690B97FD8CCFF8018285A3
:101F10009385A485B5854F96A11DB11D82879387B2
:101F2000A487B587F0E2AF9EB001112468557E4FBB
:101F30006115710509F476CFDB018C91882341F09E
:101F4000853E09F061C0BB2029F0BB24B394BACF11
:101F5000B1100EC0F701A28A809100019091010199
:101F6000A0910201B091030186879787A08BB18B66
:101F7000DB018C918111E9CFBB24B394832D827155
:101F8000823109F04FCFBB2009F44CC0F7016685C0
:101F900077858089918941E00E94A404882309F40F
:101FA00041CFD70152968C91B0E28B9FC001112492
:101FB00088559E4F009709F435CFFC013A9626E1EB
:101FC000DF011D922A95E9F72BE0F601DC01019073
:101FD0000D922A95E1F721E238E2FC01318B208B4A
:101FE00040E058E057874687338B228B318F208F14
:101FF000578B468B0E946704882309F413CF432D27
:10200000D70152966C910AC04BE050E0C6010E9485
:102010004216892B09F056CF432D6A2DC7010E9425
:10202000760E01CFF8018581823009F4FBCEC8011C
:102030000E943808882309F4F5CED8015B96ED910B
:10204000FC915C9716968D909D90AD90BC901997E1
:10205000B2E08B1A9108A108B108858504C0880CEC
:10206000991CAA1CBB1C8A95D2F786859785A089E6
:10207000B189880E991EAA1EBB1E848124013501D8
:10208000480E511C611C711C84149504A604B704ED
:1020900001F1E1E04E1A5108610871080E946704DD
:1020A000882309F4BFCEE8EAF1E0119288EA93E0D0
:1020B0008E179F07D1F74092000150920101609264
:1020C00002017092030180919601816080939601D4
:1020D000DBCFD8015B96ED91FC91258580E092E005
:1020E000A0E0B0E004C0880F991FAA1FBB1F2A956B
:1020F000D2F7F8014389548965897689840F951F41
:10210000A61FB71F838B948BA58BB68BD7015296D6
:102110001C9288EA91E051CFEF92FF920F931F93A8
:10212000CF93DF93EC017B018A011B821A8288EE38
:1021300093E0A0E0B0E08C839D83AE83BF8380E218
:1021400091E0998388838DE190E00E941D159A8F1C
:10215000898F009779F02DE1F701DC0101900D9254
:102160002A95E1F74CE050E0B801CE010C960E94B0
:102170004F16188EDF91CF911F910F91FF90EF9026
:102180000895CF92DF92EF92FF920F931F93CF9318
:10219000DF93CDB7DEB7C755D1090FB6F894DEBFD0
:1021A0000FBECDBF1092AD031092AC0388EE93E04A
:1021B000A0E0B0E08093AE039093AF03A093B00390
:1021C000B093B1038EE091E09093AB038093AA03A8
:1021D00085EC90E09093B7038093B60384EC90E095
:1021E0009093B9038093B80380EC90E09093BB0385
:1021F0008093BA0381EC90E09093BD038093BC037D
:1022000082EC90E09093BF038093BE0386EC90E055
:102210009093C1038093C0031092C3031092C40330
:102220001092C5031092C60310928804109289047C
:1022300010928C0410928E0482E090E0A0E0B0E056
:1022400080938F0490939004A0939104B093920490
:102250001092A6041092B0041092AF0402E311E0B1
:102260001093AE040093AD041092B2046DEA74E0D2
:10227000CE0101960E94260EBE016F5F7F4FCE01F8
:10228000CB960E94260E19A218A21F8F0E8F1BA29A
:1022900021968FAD2197811186C01092CF041092A4
:1022A000CE0488EE93E0A0E0B0E08093D004909359
:1022B000D104A093D204B093D30480E291E0909330
:1022C000CD048093CC041092E6041092E5041092A1
:1022D000D80461E08EE00E94140160E08FE00E946B
:1022E00014018EE090E09093700480936F048FE06F
:1022F00090E0909372048093710488EBC82E8BE079
:10230000D82EE12CF12CC0927304D0927404E09288
:102310007504F092760461E080E10E94140160E0AF
:1023200081E10E94140180E190E090935C0480932D
:102330005B0481E190E090935E0480935D04C09221
:102340005F04D0926004E0926104F092620461E064
:1023500082E10E94140160E083E10E94140182E1A5
:1023600090E0909348048093470483E190E0909339
:102370004A0480934904C0924B04D0924C04E092EA
:102380004D04F0924E04C95ADF4F0FB6F894DEBFE9
:102390000FBECDBFDF91CF911F910F91FF90EF90B6
:1023A000DF90CF900895825023E14DE351E08230D9
:1023B00010F56DEA74E0CE014E960E94E20E88237D
:1023C00009F46BCF49A95AA96BA97CA9CE014E96F5
:1023D0000E94A407BE01625E7F4FCE0101960E945B
:1023E000260E4DE351E0BE016F5F7F4F8CEC94E011
:1023F0000E948C106ECFBE01655C7F4FCE014E9661
:102400000E94E20E882309F448CFCE01CB960E94A9
:102410001A0ED8CF789484B5826084BD84B581606B
:1024200084BD85B5826085BD85B5816085BD80919F
:102430006E00816080936E00109281008091810017
:10244000826080938100809181008160809381000F
:10245000809180008160809380008091B1008460D1
:102460008093B1008091B00081608093B000809132
:102470007A00846080937A0080917A0082608093F1
:102480007A0080917A00816080937A0080917A004E
:10249000806880937A001092C10010929E01109281
:1024A0009D0110929C0110929B0161E08EE00E94C0
:1024B000140160E08FE00E94140161E080E10E945D
:1024C000140160E081E10E94140161E082E10E9458
:1024D000140160E083E10E94140161E083E00E9446
:1024E000140161E085E00E94140161E086E00E9431
:1024F000140161E089E00E94140169E471E08AEA54
:1025000093E00E94BA0C10928E0410928C041092E8
:102510008904109288048AE0809387040E949F01B6
:10252000EB0161E0809187040E94140183E894E04C
:102530000E94B80260E08CE00E94140161E08BE030
:102540000E94140161E08DE00E94140161E08AE0C4
:102550000E94140161E08AE00E94E60083E58CBDE0
:102560008DB58E7F8DBD1AE08FEF0E94DC02115079
:10257000D9F760E0809187040E94E60020E030E017
:10258000A90160E083E894E00E940103182F809382
:102590008D048130A9F00E949F016C1B7D0B613D71
:1025A000774060F381E08093880483E894E00E94A0
:1025B000B80261E671E08AEA93E00E94C90CFFCF9D
:1025C0002AEA31E040E050E068E083E894E00E94CD
:1025D000010382FF2AC010938E0480918E04C12CC7
:1025E000D12C7601823029F4C12CD12CE12C30E49D
:1025F000F32E20E030E0A90167E383E894E00E9435
:102600000103A701960169E283E894E00E940103B7
:1026100080938D048823C1F00E949F016C1B7D0B69
:10262000613D774030F388E0BECF14E00E94E102C4
:1026300080938D041150D1F78A3A11F082E0B3CF24
:1026400082E080938E04C9CF80918E048230D1F4D1
:1026500020E030E0A9016AE383E894E00E940103EE
:10266000882311F086E09FCF0E94E102807C803CAD
:1026700019F483E080938E040E94E1020E94E1023B
:102680000E94E10283E894E00E94B8028DB58E7F3B
:102690008DBD8CB58C7F8CBD8CB58CBD81E00E94CE
:1026A000ED04882309F4CAC08091B204811181CF5E
:1026B0008091A604803109F0C8C082E08093B20402
:1026C0001092C4041092C5041092C6041092C7045C
:1026D0008091A7049091A804B0E0A0E025E0880FC5
:1026E000991FAA1FBB1F2A95D1F78093C00490930E
:1026F000C104A093C204B093C3048FE894E0909304
:10270000C9048093C80481E08093B1041092B3049B
:102710001092B4041092B5041092B6041092B7044B
:102720001092B8041092B9041092BA041092BB042B
:102730001092BC041092BD041092BE041092BF040B
:102740008AE3C82ED12CE12CF12CC0E0D0E080919E
:102750009D0190919E01892BE1F483E00E94BD00D0
:10276000892B09F491C060E083E00E94E60061E0FB
:1027700085E00E94E60060E086E00E94E60061E0FD
:1027800089E00E94E60068E771E08CEC94E00E942A
:10279000C90C10929E0110929D0180919B01909115
:1027A0009C01892BE1F58FE694E00E94DD0C60919D
:1027B0007704709178048091790490917A04A7014C
:1027C00096010E94BC1420937B0430937C044093B8
:1027D0007D0450937E042B303105410551050CF0EA
:1027E00066C06DE771E08AEA93E00E94BA0C61E08E
:1027F00086E00E94E60060E089E00E94E60061E079
:1028000083E00E94E60060E085E00E94E60065E863
:1028100071E08CEC94E00E94C90C0E946A01109255
:102820009C0110929B01209709F491CF0E94150200
:10283000882309F48CCF0E94000089CF80E00E9499
:10284000ED04882309F4B5CE2FCF803209F0B1CE44
:1028500083E08093B2044091A9045091AA0460914E
:10286000AB047091AC044093C4045093C5046093CE
:10287000C6047093C70420EC34E08FE894E00E9413
:10288000390781113ACF95CE85E00E94BD000197AE
:1028900009F069CF86E00E94BD00892B09F063CF63
:1028A00089E00E94BD00019709F05DCF72CF8BE5F2
:1028B00094E00E94DD0C6091630470916404809147
:1028C000650490916604A70196010E94BC142093B0
:1028D0006704309368044093690450936A042B3072
:1028E000310541055105ACF46DE771E08AEA93E0EA
:1028F0000E94BA0C61E083E00E94E60060E085E09F
:102900000E94E60060E086E00E94E6006AE871E06E
:1029100080CF87E494E00E94DD0C60914F047091B9
:1029200050048091510490915204A70196010E9495
:10293000BC14209353043093540440935504509393
:1029400056042B303105410551050CF068CF6DE779
:1029500071E08AEA93E00E94BA0C61E086E00E948E
:10296000E60060E089E00E94E60060E083E00E940B
:10297000E60060E971E04DCF052E97FB1EF4009450
:102980000E94D31457FD07D00E94E61407FC03D021
:102990004EF40C94D31450954095309521953F4FAB
:1029A0004F4F5F4F089590958095709561957F4F3B
:1029B0008F4F9F4F08950E940E15A59F900DB49FB5
:1029C000900DA49F800D911D11240895A1E21A2E4F
:1029D000AA1BBB1BFD010DC0AA1FBB1FEE1FFF1FC3
:1029E000A217B307E407F50720F0A21BB30BE40B13
:1029F000F50B661F771F881F991F1A9469F760955A
:102A00007095809590959B01AC01BD01CF01089513
:102A1000EE0FFF1F0590F491E02D0994A29FB001E5
:102A2000B39FC001A39F700D811D1124911DB29F02
:102A3000700D811D1124911D08950F931F93CF9345
:102A4000DF938230910510F482E090E0E091E90498
:102A5000F091EA0430E020E0B0E0A0E0309799F493
:102A60002115310509F44AC0281B390B24303105E2
:102A7000D8F58A819B816115710589F1FB019383EA
:102A80008283FE0111C04081518102811381481768
:102A90005907E0F04817590799F4109761F012961A
:102AA0000C93129713961C933296CF01DF91CF911E
:102AB0001F910F9108950093E9041093EA04F4CF55
:102AC0002115310551F04217530738F0A901DB01F8
:102AD0009A01BD01DF01F801C1CFEF01F9CF909359
:102AE000EA048093E904CDCFFE01E20FF31F819346
:102AF00091932250310939832883D7CF2091E7045D
:102B00003091E804232B41F4209106013091070114
:102B10003093E8042093E7042091040130910501EB
:102B20002115310541F42DB73EB740910801509170
:102B30000901241B350BE091E704F091E804E2174A
:102B4000F307A0F42E1B3F0B2817390778F0AC01D0
:102B50004E5F5F4F2417350748F04E0F5F1F5093AD
:102B6000E8044093E704819391939FCFF0E0E0E085
:102B70009CCFCF93DF930097E9F0FC01329713824B
:102B80001282A091E904B091EA04ED0130E020E066
:102B90001097A1F420813181820F931F2091E704C7
:102BA0003091E8042817390709F061C0F093E80470
:102BB000E093E704DF91CF910895EA01CE17DF0794
:102BC000E8F54A815B819E0141155105B1F7E901A4
:102BD000FB83EA8349915991C40FD51FEC17FD0778
:102BE00061F4808191810296840F951FE901998398
:102BF0008883828193819B838A83F0E0E0E0129650
:102C00008D919C9113970097B9F52D913C91119757
:102C1000CD010296820F931F2091E7043091E804C2
:102C20002817390739F6309751F51092EA041092B7
:102C3000E904B093E804A093E704BCCFD383C28334
:102C400040815181840F951FC817D90761F44E5FE9
:102C50005F4F88819981480F591F518340838A8132
:102C60009B81938382832115310509F0B0CFF093C6
:102C7000EA04E093E9049ECFFD01DC01C0CF13829A
:102C80001282D7CFFB01DC0104C08D910190801925
:102C900021F441505040C8F7881B990B0895FB015F
:102CA000DC014150504048F001900D920020C9F7DE
:102CB00001C01D9241505040E0F70895F894FFCFB5
:102CC000FFFFFFFF0000EB048000000000004B024C
:102CD000AB01D80198020902E701FB0100000000E6
:102CE000530B360BB70C0E0B160B890C930C000014
:102CF0000000FC0AAB01B70C0D0B0D0A00646174F7
:102D0000616C6F672E74787400496E697469616CC8
:102D1000697A696E6720534420636172642E2E2E97
:102D200000696E697469616C697A6174696F6E209B
:102D30006661696C65642100666F72770057415265
:102D40004E494E47006261636B00727475726E008B
:062D50006C7475726E0048
:00000001FF
